:0400000011EF00F00C
:08000800B8A010009AEF00F00F
:10001800AFA01000AF903EEF00F048ED00F04EEDBD
:1000280000F068ED00F072ED00F01BEF00F0C37611
:100038008EED00F08EED00F0C3768EED00F08EEDC3
:1000480000F01BEF00F0C3860401000EFB6F010EE9
:10005800FA6F024483EC00F0C06E8EED00F0042EBF
:100068003BEF00F0052E42EF00F09AEF00F0022A75
:1000780027EF00F0050E056E000E026E0A0E046EE4
:10008800000E026E27EF00F00001600EAD6F020E49
:10009800B16F12000401D36BC387286BCB9704019F
:1000A800CE6B006BC68701870401CF6B086BC789CD
:1000B80009890401D36B286BCB8509850401D06BB2
:1000C800C06B106BC86B12000201030E3E6F020179
:1000D8000C0E3F6F02012A0E406F1200D68A0301F0
:1000E800639168816C81D690AF909F80D692B490CE
:1000F800A480D694B890A880D68ED68C1200F92603
:10010800810C420C240C180C000C180C240C420C0A
:10011800810C000CFA0E016EF90E006E0000002E24
:0C01280092EF00F0012E90EF00F01200AA
:020000040030CA
:10000000EC0D27C79FFFFFFFFFFFFFFFFFFFFFFF75
:10001000FFFFFFFFFFFFFFFFFFFFFFFFFFFFFFFFF0
:03002000FFFFFFE0
:00000001FF
