:10000000010E006E0000002E02EF00F01200060E3E
:10001000006E0000002E0AEF00F012000B0E006EC2
:100020000000002E10EF00F01200170E006E00000E
:1000300000000000002E19EF00F01200400E006ECC
:1000400000000000002E22EF00F012003D0E006EB6
:100050000000002E28EF00F012007B0E006E000062
:1000600000000000002E31EF00F01200F80E006ECC
:10007000000000000000002E3AEF00F01200050E14
:10008000016E00000000F80E006E0000002E45EF2B
:1000900000F00000012E43EF00F00000000012000D
:1000A0000A0E016E00000000F80E006E0000002E27
:1000B00056EF00F000000000012E54EF00F00000A9
:1000C00000001200190E016EF80E006E0000000014
:1000D000002E67EF00F000000000012E64EF00F03A
:1000E0001200320E016EF80E006E00000000002EAD
:1000F00076EF00F000000000012E73EF00F0120018
:10010000640E016EF80E006E00000000002E85EFF8
:1001100000F000000000012E82EF00F01200C80E77
:10012000016EF80E006E00000000002E94EF00F04B
:1001300000000000012E91EF00F01200FA0E016E97
:10014000F80E006E0000002EA2EF00F0000000008C
:100150000000012EA0EF00F0120094ED01F09AEDE6
:1001600001F0F90ED16E9EEC00F09EEC00F09EECDA
:1001700000F09EEC00F0CEB6C0EF00F038EF01F0DA
:10018000A40ED16E9EEC00F09EEC00F09EEC00F010
:100190009EEC00F0CEB6CFEF00F038EF01F0B00EDD
:1001A000D16E9EEC00F09EEC00F09EEC00F09EEC18
:1001B00000F0CEB6DEEF00F038EF01F0990ED16E10
:1001C0009EEC00F09EEC00F09EEC00F09EEC00F047
:1001D000CEB6EDEF00F038EF01F0920ED16E9EEC4E
:1001E00000F09EEC00F09EEC00F09EEC00F0CEB62D
:1001F000FCEF00F038EF01F0820ED16E9EEC00F0C3
:100200009EEC00F09EEC00F09EEC00F0CEB60BEF02
:1002100001F038EF01F0F80ED16E9EEC00F09EEC8C
:1002200000F09EEC00F09EEC00F0CEB61AEF01F06C
:1002300038EF01F0800ED16E9EEC00F09EEC00F0E5
:100240009EEC00F09EEC00F0CEB629EF01F038EF06
:1002500001F0900ED16E9EEC00F09EEC00F09EEC52
:1002600000F09EEC00F0CEB6B1EF00F038EF01F0F8
:10027000080ED16E9EEC00F09EEC00F09EEC00F0BB
:100280009EEC00F0CEB6B1EF00F047EF01F0030EA8
:10029000D16E9EEC00F09EEC00F09EEC00F09EEC27
:1002A00000F0CEB6B1EF00F056EF01F0460ED16E81
:1002B0009EEC00F09EEC00F09EEC00F09EEC00F056
:1002C000CEB6B1EF00F065EF01F0210ED16E9EECDD
:1002D00000F09EEC00F09EEC00F09EEC00F0CEB63C
:1002E000B1EF00F074EF01F0060ED16F9EEC00F05C
:1002F0009EEC00F09EEC00F09EEC00F0CEB6B1EF6C
:1003000000F083EF01F00401C1690E0ED16F9EEC85
:1003100000F09EEC00F09EEC00F09EEC00F0CEB6FB
:10032000B1EF00F038EF01F00001600EAD6F020E8A
:10033000B16F12000401D16BC18F186B0401CE6B39
:08034000006BC6870187120063
:020000040001F9
:04FFFC00ADEF00F075
:020000040030CA
:10000000EC0D27C79FFFFFFFFFFFFFFFFFFFFFFF75
:10001000FFFFFFFFFFFFFFFFFFFFFFFFFFFFFFFFF0
:03002000FFFFFFE0
:00000001FF
